{
  "_format": "hh-sol-artifact-1",
  "contractName": "EthBiscuits",
  "sourceName": "contracts/EthBiscuits.sol",
  "abi": [
    {
      "inputs": [],
      "stateMutability": "nonpayable",
      "type": "constructor"
    },
    {
      "inputs": [
        {
          "internalType": "address",
          "name": "sender",
          "type": "address"
        },
        {
          "internalType": "uint256",
          "name": "balance",
          "type": "uint256"
        },
        {
          "internalType": "uint256",
          "name": "needed",
          "type": "uint256"
        },
        {
          "internalType": "uint256",
          "name": "tokenId",
          "type": "uint256"
        }
      ],
      "name": "ERC1155InsufficientBalance",
      "type": "error"
    },
    {
      "inputs": [
        {
          "internalType": "address",
          "name": "approver",
          "type": "address"
        }
      ],
      "name": "ERC1155InvalidApprover",
      "type": "error"
    },
    {
      "inputs": [
        {
          "internalType": "uint256",
          "name": "idsLength",
          "type": "uint256"
        },
        {
          "internalType": "uint256",
          "name": "valuesLength",
          "type": "uint256"
        }
      ],
      "name": "ERC1155InvalidArrayLength",
      "type": "error"
    },
    {
      "inputs": [
        {
          "internalType": "address",
          "name": "operator",
          "type": "address"
        }
      ],
      "name": "ERC1155InvalidOperator",
      "type": "error"
    },
    {
      "inputs": [
        {
          "internalType": "address",
          "name": "receiver",
          "type": "address"
        }
      ],
      "name": "ERC1155InvalidReceiver",
      "type": "error"
    },
    {
      "inputs": [
        {
          "internalType": "address",
          "name": "sender",
          "type": "address"
        }
      ],
      "name": "ERC1155InvalidSender",
      "type": "error"
    },
    {
      "inputs": [
        {
          "internalType": "address",
          "name": "operator",
          "type": "address"
        },
        {
          "internalType": "address",
          "name": "owner",
          "type": "address"
        }
      ],
      "name": "ERC1155MissingApprovalForAll",
      "type": "error"
    },
    {
      "anonymous": false,
      "inputs": [
        {
          "indexed": true,
          "internalType": "address",
          "name": "account",
          "type": "address"
        },
        {
          "indexed": true,
          "internalType": "address",
          "name": "operator",
          "type": "address"
        },
        {
          "indexed": false,
          "internalType": "bool",
          "name": "approved",
          "type": "bool"
        }
      ],
      "name": "ApprovalForAll",
      "type": "event"
    },
    {
      "anonymous": false,
      "inputs": [
        {
          "indexed": true,
          "internalType": "address",
          "name": "operator",
          "type": "address"
        },
        {
          "indexed": true,
          "internalType": "address",
          "name": "from",
          "type": "address"
        },
        {
          "indexed": true,
          "internalType": "address",
          "name": "to",
          "type": "address"
        },
        {
          "indexed": false,
          "internalType": "uint256[]",
          "name": "ids",
          "type": "uint256[]"
        },
        {
          "indexed": false,
          "internalType": "uint256[]",
          "name": "values",
          "type": "uint256[]"
        }
      ],
      "name": "TransferBatch",
      "type": "event"
    },
    {
      "anonymous": false,
      "inputs": [
        {
          "indexed": true,
          "internalType": "address",
          "name": "operator",
          "type": "address"
        },
        {
          "indexed": true,
          "internalType": "address",
          "name": "from",
          "type": "address"
        },
        {
          "indexed": true,
          "internalType": "address",
          "name": "to",
          "type": "address"
        },
        {
          "indexed": false,
          "internalType": "uint256",
          "name": "id",
          "type": "uint256"
        },
        {
          "indexed": false,
          "internalType": "uint256",
          "name": "value",
          "type": "uint256"
        }
      ],
      "name": "TransferSingle",
      "type": "event"
    },
    {
      "anonymous": false,
      "inputs": [
        {
          "indexed": false,
          "internalType": "string",
          "name": "value",
          "type": "string"
        },
        {
          "indexed": true,
          "internalType": "uint256",
          "name": "id",
          "type": "uint256"
        }
      ],
      "name": "URI",
      "type": "event"
    },
    {
      "inputs": [
        {
          "internalType": "address",
          "name": "to",
          "type": "address"
        },
        {
          "internalType": "uint256",
          "name": "videoId",
          "type": "uint256"
        }
      ],
      "name": "authorityChange",
      "outputs": [],
      "stateMutability": "nonpayable",
      "type": "function"
    },
    {
      "inputs": [
        {
          "internalType": "uint256",
          "name": "_VideoId",
          "type": "uint256"
        }
      ],
      "name": "automatedPopularityMaker",
      "outputs": [
        {
          "internalType": "uint256",
          "name": "",
          "type": "uint256"
        }
      ],
      "stateMutability": "view",
      "type": "function"
    },
    {
      "inputs": [
        {
          "internalType": "address",
          "name": "account",
          "type": "address"
        },
        {
          "internalType": "uint256",
          "name": "id",
          "type": "uint256"
        }
      ],
      "name": "balanceOf",
      "outputs": [
        {
          "internalType": "uint256",
          "name": "",
          "type": "uint256"
        }
      ],
      "stateMutability": "view",
      "type": "function"
    },
    {
      "inputs": [
        {
          "internalType": "address[]",
          "name": "accounts",
          "type": "address[]"
        },
        {
          "internalType": "uint256[]",
          "name": "ids",
          "type": "uint256[]"
        }
      ],
      "name": "balanceOfBatch",
      "outputs": [
        {
          "internalType": "uint256[]",
          "name": "",
          "type": "uint256[]"
        }
      ],
      "stateMutability": "view",
      "type": "function"
    },
    {
      "inputs": [
        {
          "internalType": "uint256",
          "name": "_VideoId",
          "type": "uint256"
        }
      ],
      "name": "disLike",
      "outputs": [],
      "stateMutability": "nonpayable",
      "type": "function"
    },
    {
      "inputs": [],
      "name": "getALLVideos",
      "outputs": [
        {
          "components": [
            {
              "internalType": "string",
              "name": "VideoURI",
              "type": "string"
            },
            {
              "internalType": "address",
              "name": "owner",
              "type": "address"
            },
            {
              "internalType": "uint256",
              "name": "views",
              "type": "uint256"
            },
            {
              "internalType": "uint256",
              "name": "likes",
              "type": "uint256"
            },
            {
              "internalType": "uint256",
              "name": "dislikes",
              "type": "uint256"
            },
            {
              "internalType": "string",
              "name": "Type",
              "type": "string"
            },
            {
              "internalType": "uint256",
              "name": "duration",
              "type": "uint256"
            }
          ],
          "internalType": "struct EthBiscuits.Video[]",
          "name": "",
          "type": "tuple[]"
        }
      ],
      "stateMutability": "view",
      "type": "function"
    },
    {
      "inputs": [
        {
          "internalType": "address",
          "name": "user",
          "type": "address"
        }
      ],
      "name": "getUserVideo",
      "outputs": [
        {
          "components": [
            {
              "internalType": "string",
              "name": "VideoURI",
              "type": "string"
            },
            {
              "internalType": "address",
              "name": "owner",
              "type": "address"
            },
            {
              "internalType": "uint256",
              "name": "views",
              "type": "uint256"
            },
            {
              "internalType": "uint256",
              "name": "likes",
              "type": "uint256"
            },
            {
              "internalType": "uint256",
              "name": "dislikes",
              "type": "uint256"
            },
            {
              "internalType": "string",
              "name": "Type",
              "type": "string"
            },
            {
              "internalType": "uint256",
              "name": "duration",
              "type": "uint256"
            }
          ],
          "internalType": "struct EthBiscuits.Video[]",
          "name": "",
          "type": "tuple[]"
        }
      ],
      "stateMutability": "view",
      "type": "function"
    },
    {
      "inputs": [
        {
          "internalType": "address",
          "name": "account",
          "type": "address"
        },
        {
          "internalType": "address",
          "name": "operator",
          "type": "address"
        }
      ],
      "name": "isApprovedForAll",
      "outputs": [
        {
          "internalType": "bool",
          "name": "",
          "type": "bool"
        }
      ],
      "stateMutability": "view",
      "type": "function"
    },
    {
      "inputs": [
        {
          "internalType": "uint256",
          "name": "_VideoId",
          "type": "uint256"
        }
      ],
      "name": "like",
      "outputs": [],
      "stateMutability": "nonpayable",
      "type": "function"
    },
    {
      "inputs": [
        {
          "internalType": "uint256",
          "name": "_VideoId",
          "type": "uint256"
        }
      ],
      "name": "popularity",
      "outputs": [
        {
          "internalType": "uint256",
          "name": "",
          "type": "uint256"
        }
      ],
      "stateMutability": "view",
      "type": "function"
    },
    {
      "inputs": [
        {
          "internalType": "string",
          "name": "_name",
          "type": "string"
        }
      ],
      "name": "registerUSer",
      "outputs": [],
      "stateMutability": "nonpayable",
      "type": "function"
    },
    {
      "inputs": [
        {
          "internalType": "address",
          "name": "from",
          "type": "address"
        },
        {
          "internalType": "address",
          "name": "to",
          "type": "address"
        },
        {
          "internalType": "uint256[]",
          "name": "ids",
          "type": "uint256[]"
        },
        {
          "internalType": "uint256[]",
          "name": "values",
          "type": "uint256[]"
        },
        {
          "internalType": "bytes",
          "name": "data",
          "type": "bytes"
        }
      ],
      "name": "safeBatchTransferFrom",
      "outputs": [],
      "stateMutability": "nonpayable",
      "type": "function"
    },
    {
      "inputs": [
        {
          "internalType": "address",
          "name": "from",
          "type": "address"
        },
        {
          "internalType": "address",
          "name": "to",
          "type": "address"
        },
        {
          "internalType": "uint256",
          "name": "id",
          "type": "uint256"
        },
        {
          "internalType": "uint256",
          "name": "value",
          "type": "uint256"
        },
        {
          "internalType": "bytes",
          "name": "data",
          "type": "bytes"
        }
      ],
      "name": "safeTransferFrom",
      "outputs": [],
      "stateMutability": "nonpayable",
      "type": "function"
    },
    {
      "inputs": [
        {
          "internalType": "address",
          "name": "operator",
          "type": "address"
        },
        {
          "internalType": "bool",
          "name": "approved",
          "type": "bool"
        }
      ],
      "name": "setApprovalForAll",
      "outputs": [],
      "stateMutability": "nonpayable",
      "type": "function"
    },
    {
      "inputs": [
        {
          "internalType": "address",
          "name": "to",
          "type": "address"
        }
      ],
      "name": "subscribe",
      "outputs": [],
      "stateMutability": "nonpayable",
      "type": "function"
    },
    {
      "inputs": [
        {
          "internalType": "bytes4",
          "name": "interfaceId",
          "type": "bytes4"
        }
      ],
      "name": "supportsInterface",
      "outputs": [
        {
          "internalType": "bool",
          "name": "",
          "type": "bool"
        }
      ],
      "stateMutability": "view",
      "type": "function"
    },
    {
      "inputs": [
        {
          "internalType": "string",
          "name": "_VideoURI",
          "type": "string"
        },
        {
          "internalType": "string",
          "name": "_type",
          "type": "string"
        },
        {
          "internalType": "uint256",
          "name": "_duration",
          "type": "uint256"
        }
      ],
      "name": "uploadVideo",
      "outputs": [],
      "stateMutability": "nonpayable",
      "type": "function"
    },
    {
      "inputs": [
        {
          "internalType": "uint256",
          "name": "",
          "type": "uint256"
        }
      ],
      "name": "uri",
      "outputs": [
        {
          "internalType": "string",
          "name": "",
          "type": "string"
        }
      ],
      "stateMutability": "view",
      "type": "function"
    },
    {
      "inputs": [
        {
          "internalType": "uint256",
          "name": "_VideoId",
          "type": "uint256"
        }
      ],
      "name": "viewUpdate",
      "outputs": [],
      "stateMutability": "nonpayable",
      "type": "function"
    }
  ],
  "bytecode": "0x608060405260016004553480156200001657600080fd5b506040518060200160405280600081525062000038816200006a60201b60201c565b5062000064336001662386f26fc10000604051806020016040528060008152506200007f60201b60201c565b620011ba565b80600290816200007b919062000c22565b5050565b600073ffffffffffffffffffffffffffffffffffffffff168473ffffffffffffffffffffffffffffffffffffffff1603620000f45760006040517f57f447ce000000000000000000000000000000000000000000000000000000008152600401620000eb919062000d4e565b60405180910390fd5b6000806200010985856200012b60201b60201c565b91509150620001236000878484876200015b60201b60201c565b505050505050565b60608060405191506001825283602083015260408201905060018152826020820152604081016040529250929050565b6200016f858585856200023460201b60201c565b600073ffffffffffffffffffffffffffffffffffffffff168473ffffffffffffffffffffffffffffffffffffffff16146200022d576000620001b66200060660201b60201c565b9050600184510362000214576000620001da6000866200060e60201b90919060201c565b90506000620001f46000866200060e60201b90919060201c565b90506200020c8389898585896200062260201b60201c565b50506200022b565b6200022a818787878787620007e560201b60201c565b5b505b5050505050565b80518251146200028157815181516040517f5b0599910000000000000000000000000000000000000000000000000000000081526004016200027892919062000d7c565b60405180910390fd5b6000620002936200060660201b60201c565b905060005b8351811015620004b7576000620002b982866200060e60201b90919060201c565b90506000620002d283866200060e60201b90919060201c565b9050600073ffffffffffffffffffffffffffffffffffffffff168873ffffffffffffffffffffffffffffffffffffffff16146200040357600080600084815260200190815260200160002060008a73ffffffffffffffffffffffffffffffffffffffff1673ffffffffffffffffffffffffffffffffffffffff16815260200190815260200160002054905081811015620003ab57888183856040517f03dee4c5000000000000000000000000000000000000000000000000000000008152600401620003a2949392919062000da9565b60405180910390fd5b81810360008085815260200190815260200160002060008b73ffffffffffffffffffffffffffffffffffffffff1673ffffffffffffffffffffffffffffffffffffffff16815260200190815260200160002081905550505b600073ffffffffffffffffffffffffffffffffffffffff168773ffffffffffffffffffffffffffffffffffffffff1614620004a1578060008084815260200190815260200160002060008973ffffffffffffffffffffffffffffffffffffffff1673ffffffffffffffffffffffffffffffffffffffff168152602001908152602001600020600082825462000499919062000e25565b925050819055505b505080620004af9062000e60565b905062000298565b5060018351036200057e576000620004da6000856200060e60201b90919060201c565b90506000620004f46000856200060e60201b90919060201c565b90508573ffffffffffffffffffffffffffffffffffffffff168773ffffffffffffffffffffffffffffffffffffffff168473ffffffffffffffffffffffffffffffffffffffff167fc3d58168c5ae7397731d063d5bbf3d657854427343f4c083240f7aacaa2d0f6285856040516200056e92919062000d7c565b60405180910390a45050620005ff565b8373ffffffffffffffffffffffffffffffffffffffff168573ffffffffffffffffffffffffffffffffffffffff168273ffffffffffffffffffffffffffffffffffffffff167f4a39dc06d4c0dbc64b70af90fd698a233a518aa5d07e595d983b8c0526c8f7fb8686604051620005f692919062000f7b565b60405180910390a45b5050505050565b600033905090565b600060208202602084010151905092915050565b60008473ffffffffffffffffffffffffffffffffffffffff163b1115620007dd578373ffffffffffffffffffffffffffffffffffffffff1663f23a6e6187878686866040518663ffffffff1660e01b81526004016200068695949392919062001050565b6020604051808303816000875af1925050508015620006c557506040513d601f19601f82011682018060405250810190620006c2919062001116565b60015b6200074f573d8060008114620006f8576040519150601f19603f3d011682016040523d82523d6000602084013e620006fd565b606091505b5060008151036200074757846040517f57f447ce0000000000000000000000000000000000000000000000000000000081526004016200073e919062000d4e565b60405180910390fd5b805181602001fd5b63f23a6e6160e01b7bffffffffffffffffffffffffffffffffffffffffffffffffffffffff1916817bffffffffffffffffffffffffffffffffffffffffffffffffffffffff191614620007db57846040517f57f447ce000000000000000000000000000000000000000000000000000000008152600401620007d2919062000d4e565b60405180910390fd5b505b505050505050565b60008473ffffffffffffffffffffffffffffffffffffffff163b1115620009a0578373ffffffffffffffffffffffffffffffffffffffff1663bc197c8187878686866040518663ffffffff1660e01b81526004016200084995949392919062001148565b6020604051808303816000875af19250505080156200088857506040513d601f19601f8201168201806040525081019062000885919062001116565b60015b62000912573d8060008114620008bb576040519150601f19603f3d011682016040523d82523d6000602084013e620008c0565b606091505b5060008151036200090a57846040517f57f447ce00000000000000000000000000000000000000000000000000000000815260040162000901919062000d4e565b60405180910390fd5b805181602001fd5b63bc197c8160e01b7bffffffffffffffffffffffffffffffffffffffffffffffffffffffff1916817bffffffffffffffffffffffffffffffffffffffffffffffffffffffff1916146200099e57846040517f57f447ce00000000000000000000000000000000000000000000000000000000815260040162000995919062000d4e565b60405180910390fd5b505b505050505050565b600081519050919050565b7f4e487b7100000000000000000000000000000000000000000000000000000000600052604160045260246000fd5b7f4e487b7100000000000000000000000000000000000000000000000000000000600052602260045260246000fd5b6000600282049050600182168062000a2a57607f821691505b60208210810362000a405762000a3f620009e2565b5b50919050565b60008190508160005260206000209050919050565b60006020601f8301049050919050565b600082821b905092915050565b60006008830262000aaa7fffffffffffffffffffffffffffffffffffffffffffffffffffffffffffffffff8262000a6b565b62000ab6868362000a6b565b95508019841693508086168417925050509392505050565b6000819050919050565b6000819050919050565b600062000b0362000afd62000af78462000ace565b62000ad8565b62000ace565b9050919050565b6000819050919050565b62000b1f8362000ae2565b62000b3762000b2e8262000b0a565b84845462000a78565b825550505050565b600090565b62000b4e62000b3f565b62000b5b81848462000b14565b505050565b5b8181101562000b835762000b7760008262000b44565b60018101905062000b61565b5050565b601f82111562000bd25762000b9c8162000a46565b62000ba78462000a5b565b8101602085101562000bb7578190505b62000bcf62000bc68562000a5b565b83018262000b60565b50505b505050565b600082821c905092915050565b600062000bf76000198460080262000bd7565b1980831691505092915050565b600062000c12838362000be4565b9150826002028217905092915050565b62000c2d82620009a8565b67ffffffffffffffff81111562000c495762000c48620009b3565b5b62000c55825462000a11565b62000c6282828562000b87565b600060209050601f83116001811462000c9a576000841562000c85578287015190505b62000c91858262000c04565b86555062000d01565b601f19841662000caa8662000a46565b60005b8281101562000cd45784890151825560018201915060208501945060208101905062000cad565b8683101562000cf4578489015162000cf0601f89168262000be4565b8355505b6001600288020188555050505b505050505050565b600073ffffffffffffffffffffffffffffffffffffffff82169050919050565b600062000d368262000d09565b9050919050565b62000d488162000d29565b82525050565b600060208201905062000d65600083018462000d3d565b92915050565b62000d768162000ace565b82525050565b600060408201905062000d93600083018562000d6b565b62000da2602083018462000d6b565b9392505050565b600060808201905062000dc0600083018762000d3d565b62000dcf602083018662000d6b565b62000dde604083018562000d6b565b62000ded606083018462000d6b565b95945050505050565b7f4e487b7100000000000000000000000000000000000000000000000000000000600052601160045260246000fd5b600062000e328262000ace565b915062000e3f8362000ace565b925082820190508082111562000e5a5762000e5962000df6565b5b92915050565b600062000e6d8262000ace565b91507fffffffffffffffffffffffffffffffffffffffffffffffffffffffffffffffff820362000ea25762000ea162000df6565b5b600182019050919050565b600081519050919050565b600082825260208201905092915050565b6000819050602082019050919050565b62000ee48162000ace565b82525050565b600062000ef8838362000ed9565b60208301905092915050565b6000602082019050919050565b600062000f1e8262000ead565b62000f2a818562000eb8565b935062000f378362000ec9565b8060005b8381101562000f6e57815162000f52888262000eea565b975062000f5f8362000f04565b92505060018101905062000f3b565b5085935050505092915050565b6000604082019050818103600083015262000f97818562000f11565b9050818103602083015262000fad818462000f11565b90509392505050565b600081519050919050565b600082825260208201905092915050565b60005b8381101562000ff257808201518184015260208101905062000fd5565b60008484015250505050565b6000601f19601f8301169050919050565b60006200101c8262000fb6565b62001028818562000fc1565b93506200103a81856020860162000fd2565b620010458162000ffe565b840191505092915050565b600060a08201905062001067600083018862000d3d565b62001076602083018762000d3d565b62001085604083018662000d6b565b62001094606083018562000d6b565b8181036080830152620010a881846200100f565b90509695505050505050565b600080fd5b60007fffffffff0000000000000000000000000000000000000000000000000000000082169050919050565b620010f081620010b9565b8114620010fc57600080fd5b50565b6000815190506200111081620010e5565b92915050565b6000602082840312156200112f576200112e620010b4565b5b60006200113f84828501620010ff565b91505092915050565b600060a0820190506200115f600083018862000d3d565b6200116e602083018762000d3d565b818103604083015262001182818662000f11565b9050818103606083015262001198818562000f11565b90508181036080830152620011ae81846200100f565b90509695505050505050565b6138dd80620011ca6000396000f3fe608060405234801561001057600080fd5b50600436106101205760003560e01c806341a7726a116100ad578063a973db7d11610071578063a973db7d14610327578063c6f9487d14610343578063e82935da14610373578063e985e9c51461038f578063f242432a146103bf57610120565b806341a7726a146102735780634e1273f41461028f5780637227ea12146102bf57806382d43908146102db578063a22cb4651461030b57610120565b806310b48cfa116100f457806310b48cfa146101d157806321e1cfa5146101ed5780632eb2c2d61461021d57806338d3f165146102395780633943095c1461025757610120565b8062fdd58e1461012557806301ffc9a7146101555780630755594f146101855780630e89341c146101a1575b600080fd5b61013f600480360381019061013a9190612586565b6103db565b60405161014c91906125d5565b60405180910390f35b61016f600480360381019061016a9190612648565b610435565b60405161017c9190612690565b60405180910390f35b61019f600480360381019061019a91906127f1565b610517565b005b6101bb60048036038101906101b6919061287c565b610650565b6040516101c89190612928565b60405180910390f35b6101eb60048036038101906101e6919061294a565b6106e4565b005b6102076004803603810190610202919061287c565b610821565b60405161021491906125d5565b60405180910390f35b61023760048036038101906102329190612afc565b610854565b005b6102416108fc565b60405161024e9190612d98565b60405180910390f35b610271600480360381019061026c9190612586565b610bb4565b005b61028d60048036038101906102889190612dba565b610f78565b005b6102a960048036038101906102a49190612eaa565b610fd3565b6040516102b69190612fd1565b60405180910390f35b6102d960048036038101906102d4919061287c565b6110e2565b005b6102f560048036038101906102f0919061287c565b611172565b60405161030291906125d5565b60405180910390f35b6103256004803603810190610320919061301f565b6111cf565b005b610341600480360381019061033c919061287c565b6111e5565b005b61035d60048036038101906103589190612dba565b611214565b60405161036a9190612d98565b60405180910390f35b61038d6004803603810190610388919061287c565b611618565b005b6103a960048036038101906103a4919061305f565b611647565b6040516103b69190612690565b60405180910390f35b6103d960048036038101906103d4919061309f565b6116db565b005b600080600083815260200190815260200160002060008473ffffffffffffffffffffffffffffffffffffffff1673ffffffffffffffffffffffffffffffffffffffff16815260200190815260200160002054905092915050565b60007fd9b67a26000000000000000000000000000000000000000000000000000000007bffffffffffffffffffffffffffffffffffffffffffffffffffffffff1916827bffffffffffffffffffffffffffffffffffffffffffffffffffffffff1916148061050057507f0e89341c000000000000000000000000000000000000000000000000000000007bffffffffffffffffffffffffffffffffffffffffffffffffffffffff1916827bffffffffffffffffffffffffffffffffffffffffffffffffffffffff1916145b80610510575061050f82611783565b5b9050919050565b60016004600082825461052a9190613165565b9250508190555082600560006004548152602001908152602001600020600001908161055691906133a5565b503360056000600454815260200190815260200160002060010160006101000a81548173ffffffffffffffffffffffffffffffffffffffff021916908373ffffffffffffffffffffffffffffffffffffffff16021790555060006005600060045481526020019081526020016000206002018190555060006005600060045481526020019081526020016000206003018190555060006005600060045481526020019081526020016000206004018190555081600560006004548152602001908152602001600020600501908161062d91906133a5565b508060056000600454815260200190815260200160002060060181905550505050565b60606002805461065f906131c8565b80601f016020809104026020016040519081016040528092919081815260200182805461068b906131c8565b80156106d85780601f106106ad576101008083540402835291602001916106d8565b820191906000526020600020905b8154815290600101906020018083116106bb57829003601f168201915b50505050509050919050565b80600360003373ffffffffffffffffffffffffffffffffffffffff1673ffffffffffffffffffffffffffffffffffffffff168152602001908152602001600020600001908161073391906133a5565b5033600360003373ffffffffffffffffffffffffffffffffffffffff1673ffffffffffffffffffffffffffffffffffffffff16815260200190815260200160002060010160006101000a81548173ffffffffffffffffffffffffffffffffffffffff021916908373ffffffffffffffffffffffffffffffffffffffff1602179055506000600360003373ffffffffffffffffffffffffffffffffffffffff1673ffffffffffffffffffffffffffffffffffffffff1681526020019081526020016000206002018190555061081e3360016404a817c800604051806020016040528060008152506117ed565b50565b600061082c82611172565b600560008481526020019081526020016000206006015461084d9190613477565b9050919050565b600061085e611886565b90508073ffffffffffffffffffffffffffffffffffffffff168673ffffffffffffffffffffffffffffffffffffffff16141580156108a357506108a18682611647565b155b156108e75780866040517fe237d9220000000000000000000000000000000000000000000000000000000081526004016108de9291906134c8565b60405180910390fd5b6108f4868686868661188e565b505050505050565b6060600060045467ffffffffffffffff81111561091c5761091b6126c6565b5b60405190808252806020026020018201604052801561095557816020015b610942612421565b81526020019060019003908161093a5790505b5090506000600190505b6004548111610bac576040518060e00160405280600560008481526020019081526020016000206000018054610994906131c8565b80601f01602080910402602001604051908101604052809291908181526020018280546109c0906131c8565b8015610a0d5780601f106109e257610100808354040283529160200191610a0d565b820191906000526020600020905b8154815290600101906020018083116109f057829003601f168201915b505050505081526020016005600084815260200190815260200160002060010160009054906101000a900473ffffffffffffffffffffffffffffffffffffffff1673ffffffffffffffffffffffffffffffffffffffff168152602001600560008481526020019081526020016000206002015481526020016005600084815260200190815260200160002060030154815260200160056000848152602001908152602001600020600401548152602001600560008481526020019081526020016000206005018054610ade906131c8565b80601f0160208091040260200160405190810160405280929190818152602001828054610b0a906131c8565b8015610b575780601f10610b2c57610100808354040283529160200191610b57565b820191906000526020600020905b815481529060010190602001808311610b3a57829003601f168201915b505050505081526020016005600084815260200190815260200160002060060154815250828281518110610b8e57610b8d6134f1565b5b60200260200101819052508080610ba490613520565b91505061095f565b508091505090565b3373ffffffffffffffffffffffffffffffffffffffff166005600083815260200190815260200160002060010160009054906101000a900473ffffffffffffffffffffffffffffffffffffffff1673ffffffffffffffffffffffffffffffffffffffff1614610c58576040517f08c379a0000000000000000000000000000000000000000000000000000000008152600401610c4f906135da565b60405180910390fd5b610c753383836001604051806020016040528060008152506116db565b816005600083815260200190815260200160002060010160006101000a81548173ffffffffffffffffffffffffffffffffffffffff021916908373ffffffffffffffffffffffffffffffffffffffff16021790555060006001600360003373ffffffffffffffffffffffffffffffffffffffff1673ffffffffffffffffffffffffffffffffffffffff16815260200190815260200160002060030180549050610d1e91906135fa565b67ffffffffffffffff811115610d3757610d366126c6565b5b604051908082528060200260200182016040528015610d655781602001602082028036833780820191505090505b5090506000600190505b600360003373ffffffffffffffffffffffffffffffffffffffff1673ffffffffffffffffffffffffffffffffffffffff168152602001908152602001600020600301805490508111610eb257600360003373ffffffffffffffffffffffffffffffffffffffff1673ffffffffffffffffffffffffffffffffffffffff1681526020019081526020016000206003018181548110610e0f57610e0e6134f1565b5b90600052602060002001548314610e9f57600360003373ffffffffffffffffffffffffffffffffffffffff1673ffffffffffffffffffffffffffffffffffffffff1681526020019081526020016000206003018181548110610e7457610e736134f1565b5b9060005260206000200154828281518110610e9257610e916134f1565b5b6020026020010181815250505b8080610eaa90613520565b915050610d6f565b5080600360003373ffffffffffffffffffffffffffffffffffffffff1673ffffffffffffffffffffffffffffffffffffffff1681526020019081526020016000206003019080519060200190610f09929190612474565b50600360008473ffffffffffffffffffffffffffffffffffffffff1673ffffffffffffffffffffffffffffffffffffffff168152602001908152602001600020600301829080600181540180825580915050600190039060005260206000200160009091909190915055505050565b600360008273ffffffffffffffffffffffffffffffffffffffff1673ffffffffffffffffffffffffffffffffffffffff1681526020019081526020016000206002016000815480929190610fcb90613520565b919050555050565b6060815183511461101f57815183516040517f5b05999100000000000000000000000000000000000000000000000000000000815260040161101692919061362e565b60405180910390fd5b6000835167ffffffffffffffff81111561103c5761103b6126c6565b5b60405190808252806020026020018201604052801561106a5781602001602082028036833780820191505090505b50905060005b84518110156110d7576110a761108f828761198690919063ffffffff16565b6110a2838761199a90919063ffffffff16565b6103db565b8282815181106110ba576110b96134f1565b5b602002602001018181525050806110d090613520565b9050611070565b508091505092915050565b60006110ed82610821565b905060056000838152602001908152602001600020600201600081548092919061111690613520565b919050555061116e336005600085815260200190815260200160002060010160009054906101000a900473ffffffffffffffffffffffffffffffffffffffff16600184604051806020016040528060008152506116db565b5050565b6000620f4240600560008481526020019081526020016000206002015460056000858152602001908152602001600020600301546111b09190613686565b6111ba9190613477565b620f42406111c89190613165565b9050919050565b6111e16111da611886565b83836119ae565b5050565b60056000828152602001908152602001600020600401600081548092919061120c90613520565b919050555050565b60606000600360008473ffffffffffffffffffffffffffffffffffffffff1673ffffffffffffffffffffffffffffffffffffffff1681526020019081526020016000206003018054806020026020016040519081016040528092919081815260200182805480156112a457602002820191906000526020600020905b815481526020019060010190808311611290575b505050505090506000815167ffffffffffffffff8111156112c8576112c76126c6565b5b60405190808252806020026020018201604052801561130157816020015b6112ee612421565b8152602001906001900390816112e65790505b5090506000600190505b8251811161160d576040518060e0016040528060056000868581518110611335576113346134f1565b5b602002602001015181526020019081526020016000206000018054611359906131c8565b80601f0160208091040260200160405190810160405280929190818152602001828054611385906131c8565b80156113d25780601f106113a7576101008083540402835291602001916113d2565b820191906000526020600020905b8154815290600101906020018083116113b557829003601f168201915b50505050508152602001600560008685815181106113f3576113f26134f1565b5b6020026020010151815260200190815260200160002060010160009054906101000a900473ffffffffffffffffffffffffffffffffffffffff1673ffffffffffffffffffffffffffffffffffffffff1681526020016005600086858151811061145f5761145e6134f1565b5b6020026020010151815260200190815260200160002060020154815260200160056000868581518110611495576114946134f1565b5b60200260200101518152602001908152602001600020600301548152602001600560008685815181106114cb576114ca6134f1565b5b6020026020010151815260200190815260200160002060040154815260200160056000868581518110611501576115006134f1565b5b602002602001015181526020019081526020016000206005018054611525906131c8565b80601f0160208091040260200160405190810160405280929190818152602001828054611551906131c8565b801561159e5780601f106115735761010080835404028352916020019161159e565b820191906000526020600020905b81548152906001019060200180831161158157829003601f168201915b50505050508152602001600560008685815181106115bf576115be6134f1565b5b60200260200101518152602001908152602001600020600601548152508282815181106115ef576115ee6134f1565b5b6020026020010181905250808061160590613520565b91505061130b565b508092505050919050565b60056000828152602001908152602001600020600301600081548092919061163f90613520565b919050555050565b6000600160008473ffffffffffffffffffffffffffffffffffffffff1673ffffffffffffffffffffffffffffffffffffffff16815260200190815260200160002060008373ffffffffffffffffffffffffffffffffffffffff1673ffffffffffffffffffffffffffffffffffffffff16815260200190815260200160002060009054906101000a900460ff16905092915050565b60006116e5611886565b90508073ffffffffffffffffffffffffffffffffffffffff168673ffffffffffffffffffffffffffffffffffffffff161415801561172a57506117288682611647565b155b1561176e5780866040517fe237d9220000000000000000000000000000000000000000000000000000000081526004016117659291906134c8565b60405180910390fd5b61177b8686868686611b1e565b505050505050565b60007f01ffc9a7000000000000000000000000000000000000000000000000000000007bffffffffffffffffffffffffffffffffffffffffffffffffffffffff1916827bffffffffffffffffffffffffffffffffffffffffffffffffffffffff1916149050919050565b600073ffffffffffffffffffffffffffffffffffffffff168473ffffffffffffffffffffffffffffffffffffffff160361185f5760006040517f57f447ce00000000000000000000000000000000000000000000000000000000815260040161185691906136b7565b60405180910390fd5b60008061186c8585611c29565b9150915061187e600087848487611c59565b505050505050565b600033905090565b600073ffffffffffffffffffffffffffffffffffffffff168473ffffffffffffffffffffffffffffffffffffffff16036119005760006040517f57f447ce0000000000000000000000000000000000000000000000000000000081526004016118f791906136b7565b60405180910390fd5b600073ffffffffffffffffffffffffffffffffffffffff168573ffffffffffffffffffffffffffffffffffffffff16036119725760006040517f01a8351400000000000000000000000000000000000000000000000000000000815260040161196991906136b7565b60405180910390fd5b61197f8585858585611c59565b5050505050565b600060208202602084010151905092915050565b600060208202602084010151905092915050565b600073ffffffffffffffffffffffffffffffffffffffff168273ffffffffffffffffffffffffffffffffffffffff1603611a205760006040517fced3e100000000000000000000000000000000000000000000000000000000008152600401611a1791906136b7565b60405180910390fd5b80600160008573ffffffffffffffffffffffffffffffffffffffff1673ffffffffffffffffffffffffffffffffffffffff16815260200190815260200160002060008473ffffffffffffffffffffffffffffffffffffffff1673ffffffffffffffffffffffffffffffffffffffff16815260200190815260200160002060006101000a81548160ff0219169083151502179055508173ffffffffffffffffffffffffffffffffffffffff168373ffffffffffffffffffffffffffffffffffffffff167f17307eab39ab6107e8899845ad3d59bd9653f200f220920489ca2b5937696c3183604051611b119190612690565b60405180910390a3505050565b600073ffffffffffffffffffffffffffffffffffffffff168473ffffffffffffffffffffffffffffffffffffffff1603611b905760006040517f57f447ce000000000000000000000000000000000000000000000000000000008152600401611b8791906136b7565b60405180910390fd5b600073ffffffffffffffffffffffffffffffffffffffff168573ffffffffffffffffffffffffffffffffffffffff1603611c025760006040517f01a83514000000000000000000000000000000000000000000000000000000008152600401611bf991906136b7565b60405180910390fd5b600080611c0f8585611c29565b91509150611c208787848487611c59565b50505050505050565b60608060405191506001825283602083015260408201905060018152826020820152604081016040529250929050565b611c6585858585611d0b565b600073ffffffffffffffffffffffffffffffffffffffff168473ffffffffffffffffffffffffffffffffffffffff1614611d04576000611ca3611886565b90506001845103611cf3576000611cc460008661199a90919063ffffffff16565b90506000611cdc60008661199a90919063ffffffff16565b9050611cec8389898585896120b9565b5050611d02565b611d0181878787878761226d565b5b505b5050505050565b8051825114611d5557815181516040517f5b059991000000000000000000000000000000000000000000000000000000008152600401611d4c92919061362e565b60405180910390fd5b6000611d5f611886565b905060005b8351811015611f74576000611d82828661199a90919063ffffffff16565b90506000611d99838661199a90919063ffffffff16565b9050600073ffffffffffffffffffffffffffffffffffffffff168873ffffffffffffffffffffffffffffffffffffffff1614611ec657600080600084815260200190815260200160002060008a73ffffffffffffffffffffffffffffffffffffffff1673ffffffffffffffffffffffffffffffffffffffff16815260200190815260200160002054905081811015611e6e57888183856040517f03dee4c5000000000000000000000000000000000000000000000000000000008152600401611e6594939291906136d2565b60405180910390fd5b81810360008085815260200190815260200160002060008b73ffffffffffffffffffffffffffffffffffffffff1673ffffffffffffffffffffffffffffffffffffffff16815260200190815260200160002081905550505b600073ffffffffffffffffffffffffffffffffffffffff168773ffffffffffffffffffffffffffffffffffffffff1614611f61578060008084815260200190815260200160002060008973ffffffffffffffffffffffffffffffffffffffff1673ffffffffffffffffffffffffffffffffffffffff1681526020019081526020016000206000828254611f599190613165565b925050819055505b505080611f6d90613520565b9050611d64565b506001835103612033576000611f9460008561199a90919063ffffffff16565b90506000611fac60008561199a90919063ffffffff16565b90508573ffffffffffffffffffffffffffffffffffffffff168773ffffffffffffffffffffffffffffffffffffffff168473ffffffffffffffffffffffffffffffffffffffff167fc3d58168c5ae7397731d063d5bbf3d657854427343f4c083240f7aacaa2d0f62858560405161202492919061362e565b60405180910390a450506120b2565b8373ffffffffffffffffffffffffffffffffffffffff168573ffffffffffffffffffffffffffffffffffffffff168273ffffffffffffffffffffffffffffffffffffffff167f4a39dc06d4c0dbc64b70af90fd698a233a518aa5d07e595d983b8c0526c8f7fb86866040516120a9929190613717565b60405180910390a45b5050505050565b60008473ffffffffffffffffffffffffffffffffffffffff163b1115612265578373ffffffffffffffffffffffffffffffffffffffff1663f23a6e6187878686866040518663ffffffff1660e01b815260040161211a9594939291906137a3565b6020604051808303816000875af192505050801561215657506040513d601f19601f820116820180604052508101906121539190613812565b60015b6121da573d8060008114612186576040519150601f19603f3d011682016040523d82523d6000602084013e61218b565b606091505b5060008151036121d257846040517f57f447ce0000000000000000000000000000000000000000000000000000000081526004016121c991906136b7565b60405180910390fd5b805181602001fd5b63f23a6e6160e01b7bffffffffffffffffffffffffffffffffffffffffffffffffffffffff1916817bffffffffffffffffffffffffffffffffffffffffffffffffffffffff19161461226357846040517f57f447ce00000000000000000000000000000000000000000000000000000000815260040161225a91906136b7565b60405180910390fd5b505b505050505050565b60008473ffffffffffffffffffffffffffffffffffffffff163b1115612419578373ffffffffffffffffffffffffffffffffffffffff1663bc197c8187878686866040518663ffffffff1660e01b81526004016122ce95949392919061383f565b6020604051808303816000875af192505050801561230a57506040513d601f19601f820116820180604052508101906123079190613812565b60015b61238e573d806000811461233a576040519150601f19603f3d011682016040523d82523d6000602084013e61233f565b606091505b50600081510361238657846040517f57f447ce00000000000000000000000000000000000000000000000000000000815260040161237d91906136b7565b60405180910390fd5b805181602001fd5b63bc197c8160e01b7bffffffffffffffffffffffffffffffffffffffffffffffffffffffff1916817bffffffffffffffffffffffffffffffffffffffffffffffffffffffff19161461241757846040517f57f447ce00000000000000000000000000000000000000000000000000000000815260040161240e91906136b7565b60405180910390fd5b505b505050505050565b6040518060e0016040528060608152602001600073ffffffffffffffffffffffffffffffffffffffff16815260200160008152602001600081526020016000815260200160608152602001600081525090565b8280548282559060005260206000209081019282156124b0579160200282015b828111156124af578251825591602001919060010190612494565b5b5090506124bd91906124c1565b5090565b5b808211156124da5760008160009055506001016124c2565b5090565b6000604051905090565b600080fd5b600080fd5b600073ffffffffffffffffffffffffffffffffffffffff82169050919050565b600061251d826124f2565b9050919050565b61252d81612512565b811461253857600080fd5b50565b60008135905061254a81612524565b92915050565b6000819050919050565b61256381612550565b811461256e57600080fd5b50565b6000813590506125808161255a565b92915050565b6000806040838503121561259d5761259c6124e8565b5b60006125ab8582860161253b565b92505060206125bc85828601612571565b9150509250929050565b6125cf81612550565b82525050565b60006020820190506125ea60008301846125c6565b92915050565b60007fffffffff0000000000000000000000000000000000000000000000000000000082169050919050565b612625816125f0565b811461263057600080fd5b50565b6000813590506126428161261c565b92915050565b60006020828403121561265e5761265d6124e8565b5b600061266c84828501612633565b91505092915050565b60008115159050919050565b61268a81612675565b82525050565b60006020820190506126a56000830184612681565b92915050565b600080fd5b600080fd5b6000601f19601f8301169050919050565b7f4e487b7100000000000000000000000000000000000000000000000000000000600052604160045260246000fd5b6126fe826126b5565b810181811067ffffffffffffffff8211171561271d5761271c6126c6565b5b80604052505050565b60006127306124de565b905061273c82826126f5565b919050565b600067ffffffffffffffff82111561275c5761275b6126c6565b5b612765826126b5565b9050602081019050919050565b82818337600083830152505050565b600061279461278f84612741565b612726565b9050828152602081018484840111156127b0576127af6126b0565b5b6127bb848285612772565b509392505050565b600082601f8301126127d8576127d76126ab565b5b81356127e8848260208601612781565b91505092915050565b60008060006060848603121561280a576128096124e8565b5b600084013567ffffffffffffffff811115612828576128276124ed565b5b612834868287016127c3565b935050602084013567ffffffffffffffff811115612855576128546124ed565b5b612861868287016127c3565b925050604061287286828701612571565b9150509250925092565b600060208284031215612892576128916124e8565b5b60006128a084828501612571565b91505092915050565b600081519050919050565b600082825260208201905092915050565b60005b838110156128e35780820151818401526020810190506128c8565b60008484015250505050565b60006128fa826128a9565b61290481856128b4565b93506129148185602086016128c5565b61291d816126b5565b840191505092915050565b6000602082019050818103600083015261294281846128ef565b905092915050565b6000602082840312156129605761295f6124e8565b5b600082013567ffffffffffffffff81111561297e5761297d6124ed565b5b61298a848285016127c3565b91505092915050565b600067ffffffffffffffff8211156129ae576129ad6126c6565b5b602082029050602081019050919050565b600080fd5b60006129d76129d284612993565b612726565b905080838252602082019050602084028301858111156129fa576129f96129bf565b5b835b81811015612a235780612a0f8882612571565b8452602084019350506020810190506129fc565b5050509392505050565b600082601f830112612a4257612a416126ab565b5b8135612a528482602086016129c4565b91505092915050565b600067ffffffffffffffff821115612a7657612a756126c6565b5b612a7f826126b5565b9050602081019050919050565b6000612a9f612a9a84612a5b565b612726565b905082815260208101848484011115612abb57612aba6126b0565b5b612ac6848285612772565b509392505050565b600082601f830112612ae357612ae26126ab565b5b8135612af3848260208601612a8c565b91505092915050565b600080600080600060a08688031215612b1857612b176124e8565b5b6000612b268882890161253b565b9550506020612b378882890161253b565b945050604086013567ffffffffffffffff811115612b5857612b576124ed565b5b612b6488828901612a2d565b935050606086013567ffffffffffffffff811115612b8557612b846124ed565b5b612b9188828901612a2d565b925050608086013567ffffffffffffffff811115612bb257612bb16124ed565b5b612bbe88828901612ace565b9150509295509295909350565b600081519050919050565b600082825260208201905092915050565b6000819050602082019050919050565b600082825260208201905092915050565b6000612c13826128a9565b612c1d8185612bf7565b9350612c2d8185602086016128c5565b612c36816126b5565b840191505092915050565b612c4a81612512565b82525050565b612c5981612550565b82525050565b600060e0830160008301518482036000860152612c7c8282612c08565b9150506020830151612c916020860182612c41565b506040830151612ca46040860182612c50565b506060830151612cb76060860182612c50565b506080830151612cca6080860182612c50565b5060a083015184820360a0860152612ce28282612c08565b91505060c0830151612cf760c0860182612c50565b508091505092915050565b6000612d0e8383612c5f565b905092915050565b6000602082019050919050565b6000612d2e82612bcb565b612d388185612bd6565b935083602082028501612d4a85612be7565b8060005b85811015612d865784840389528151612d678582612d02565b9450612d7283612d16565b925060208a01995050600181019050612d4e565b50829750879550505050505092915050565b60006020820190508181036000830152612db28184612d23565b905092915050565b600060208284031215612dd057612dcf6124e8565b5b6000612dde8482850161253b565b91505092915050565b600067ffffffffffffffff821115612e0257612e016126c6565b5b602082029050602081019050919050565b6000612e26612e2184612de7565b612726565b90508083825260208201905060208402830185811115612e4957612e486129bf565b5b835b81811015612e725780612e5e888261253b565b845260208401935050602081019050612e4b565b5050509392505050565b600082601f830112612e9157612e906126ab565b5b8135612ea1848260208601612e13565b91505092915050565b60008060408385031215612ec157612ec06124e8565b5b600083013567ffffffffffffffff811115612edf57612ede6124ed565b5b612eeb85828601612e7c565b925050602083013567ffffffffffffffff811115612f0c57612f0b6124ed565b5b612f1885828601612a2d565b9150509250929050565b600081519050919050565b600082825260208201905092915050565b6000819050602082019050919050565b6000612f5a8383612c50565b60208301905092915050565b6000602082019050919050565b6000612f7e82612f22565b612f888185612f2d565b9350612f9383612f3e565b8060005b83811015612fc4578151612fab8882612f4e565b9750612fb683612f66565b925050600181019050612f97565b5085935050505092915050565b60006020820190508181036000830152612feb8184612f73565b905092915050565b612ffc81612675565b811461300757600080fd5b50565b60008135905061301981612ff3565b92915050565b60008060408385031215613036576130356124e8565b5b60006130448582860161253b565b92505060206130558582860161300a565b9150509250929050565b60008060408385031215613076576130756124e8565b5b60006130848582860161253b565b92505060206130958582860161253b565b9150509250929050565b600080600080600060a086880312156130bb576130ba6124e8565b5b60006130c98882890161253b565b95505060206130da8882890161253b565b94505060406130eb88828901612571565b93505060606130fc88828901612571565b925050608086013567ffffffffffffffff81111561311d5761311c6124ed565b5b61312988828901612ace565b9150509295509295909350565b7f4e487b7100000000000000000000000000000000000000000000000000000000600052601160045260246000fd5b600061317082612550565b915061317b83612550565b925082820190508082111561319357613192613136565b5b92915050565b7f4e487b7100000000000000000000000000000000000000000000000000000000600052602260045260246000fd5b600060028204905060018216806131e057607f821691505b6020821081036131f3576131f2613199565b5b50919050565b60008190508160005260206000209050919050565b60006020601f8301049050919050565b600082821b905092915050565b60006008830261325b7fffffffffffffffffffffffffffffffffffffffffffffffffffffffffffffffff8261321e565b613265868361321e565b95508019841693508086168417925050509392505050565b6000819050919050565b60006132a261329d61329884612550565b61327d565b612550565b9050919050565b6000819050919050565b6132bc83613287565b6132d06132c8826132a9565b84845461322b565b825550505050565b600090565b6132e56132d8565b6132f08184846132b3565b505050565b5b81811015613314576133096000826132dd565b6001810190506132f6565b5050565b601f8211156133595761332a816131f9565b6133338461320e565b81016020851015613342578190505b61335661334e8561320e565b8301826132f5565b50505b505050565b600082821c905092915050565b600061337c6000198460080261335e565b1980831691505092915050565b6000613395838361336b565b9150826002028217905092915050565b6133ae826128a9565b67ffffffffffffffff8111156133c7576133c66126c6565b5b6133d182546131c8565b6133dc828285613318565b600060209050601f83116001811461340f57600084156133fd578287015190505b6134078582613389565b86555061346f565b601f19841661341d866131f9565b60005b8281101561344557848901518255600182019150602085019450602081019050613420565b86831015613462578489015161345e601f89168261336b565b8355505b6001600288020188555050505b505050505050565b600061348282612550565b915061348d83612550565b925082820261349b81612550565b915082820484148315176134b2576134b1613136565b5b5092915050565b6134c281612512565b82525050565b60006040820190506134dd60008301856134b9565b6134ea60208301846134b9565b9392505050565b7f4e487b7100000000000000000000000000000000000000000000000000000000600052603260045260246000fd5b600061352b82612550565b91507fffffffffffffffffffffffffffffffffffffffffffffffffffffffffffffffff820361355d5761355c613136565b5b600182019050919050565b7f596f7520617265206e6f7420746865206f776e6572206f66207468697320766960008201527f64656f0000000000000000000000000000000000000000000000000000000000602082015250565b60006135c46023836128b4565b91506135cf82613568565b604082019050919050565b600060208201905081810360008301526135f3816135b7565b9050919050565b600061360582612550565b915061361083612550565b925082820390508181111561362857613627613136565b5b92915050565b600060408201905061364360008301856125c6565b61365060208301846125c6565b9392505050565b7f4e487b7100000000000000000000000000000000000000000000000000000000600052601260045260246000fd5b600061369182612550565b915061369c83612550565b9250826136ac576136ab613657565b5b828204905092915050565b60006020820190506136cc60008301846134b9565b92915050565b60006080820190506136e760008301876134b9565b6136f460208301866125c6565b61370160408301856125c6565b61370e60608301846125c6565b95945050505050565b600060408201905081810360008301526137318185612f73565b905081810360208301526137458184612f73565b90509392505050565b600081519050919050565b600082825260208201905092915050565b60006137758261374e565b61377f8185613759565b935061378f8185602086016128c5565b613798816126b5565b840191505092915050565b600060a0820190506137b860008301886134b9565b6137c560208301876134b9565b6137d260408301866125c6565b6137df60608301856125c6565b81810360808301526137f1818461376a565b90509695505050505050565b60008151905061380c8161261c565b92915050565b600060208284031215613828576138276124e8565b5b6000613836848285016137fd565b91505092915050565b600060a08201905061385460008301886134b9565b61386160208301876134b9565b81810360408301526138738186612f73565b905081810360608301526138878185612f73565b9050818103608083015261389b818461376a565b9050969550505050505056fea2646970667358221220332a41d31992e7ebaab902e0711a62a06f7ffa9c0635d7633a9268bc37446fbd64736f6c63430008140033",
  "linkReferences": {},
  "deployedLinkReferences": {}
}